:020000040800F2
:10000000B8060020590100085511000855100008D5
:1000100000000000000000000000000000000000E0
:100020000000000000000000000000005F13000856
:1000300000000000000000005D13000861130008CC
:100040006B010008000000006B0100086B01000854
:100050006B0100086B0100086B0100086B010008D0
:10006000000000006B0100086B0100086B01000834
:100070006B0100086B0100086B0100080000000024
:100080006B0100086B010008000000006B01000814
:100090006B0100086B0100086B0100086B01000890
:1000A0006B0100086B0100086B0100086B01000880
:1000B0006B01000800F002F800F03EF80CA030C818
:1000C000083824182D18A246671EAB4654465D46D4
:1000D000AC4201D100F030F87E460F3E0FCCB64660
:1000E0000126334200D0FB1AA246AB4633431847E1
:1000F00088160000A8160000103A02D378C878C10C
:10010000FAD8520701D330C830C101D504680C6059
:10011000704700000023002400250026103A01D378
:1001200078C1FBD8520700D330C100D50B607047AF
:100130001FB51FBD10B510BD00F07BF91146FFF7CC
:10014000F7FF01F0FBFA00F093F903B4FFF7F2FFB9
:1001500003BC00F099F900000748804707480047B2
:10016000FEE7FEE7FEE7FEE7FEE7FEE70448054997
:10017000054A064B70470000BF130008B500000891
:10018000B8000020B8060020B8020020B802002005
:10019000FEB5054610460C46184373D0AE468C4655
:1001A0000020AD1A01469C4167D366460027012412
:1001B0003D46B61A9D4102D313463A462124654670
:1001C00076462F04360C3E432D0CB61A9D4104D3BF
:1001D000150C1B042B4312041034654676462F067B
:1001E000360A3E432D0AB61A9D4104D3150E1B0252
:1001F0002B4312020834654676462F0736093E43E4
:100200002D09B61A9D4104D3150F1B012B43120172
:10021000241D65467646AF07B6083E43AD08B61ABC
:100220009D4104D3950F9B002B439200A41C65466F
:100230007646EF0776083E436D08B61A9D411AD3FD
:1002400092185B41641C16E00018764665464941E9
:10025000B71A9D410191009009D36046B11A9841A7
:100260008E468446009801990025401C6941DD07AF
:1002700052082A435B08641EE6D57246634603B003
:10028000F0BDFFE700200146C046C0462A4623468F
:10029000F5E701E004C0091F0429FBD28B0701D553
:1002A0000280801CC90700D00270704700290BD063
:1002B000C30702D00270401C491E022904D38307E1
:1002C00002D50280801C891EE3E70022EEE70022AF
:1002D000DFE7002203098B422CD3030A8B4211D3A0
:1002E00000239C464EE003460B433CD400224308C7
:1002F0008B4231D303098B421CD3030A8B4201D3B7
:1003000094463FE0C3098B4201D3CB01C01A52414E
:1003100083098B4201D38B01C01A524143098B429E
:1003200001D34B01C01A524103098B4201D30B0187
:10033000C01A5241C3088B4201D3CB00C01A5241AC
:1003400083088B4201D38B00C01A524143088B4271
:1003500001D34B00C01A5241411A00D2014652410A
:10036000104670475DE0CA0F00D04942031000D329
:100370004042534000229C4603098B422DD3030A7E
:100380008B4212D3FC22890112BA030A8B420CD38E
:10039000890192118B4208D3890192118B4204D3B7
:1003A00089013AD0921100E08909C3098B4201D337
:1003B000CB01C01A524183098B4201D38B01C01A71
:1003C000524143098B4201D34B01C01A52410309E8
:1003D0008B4201D30B01C01A5241C3088B4201D397
:1003E000CB00C01A524183088B4201D38B00C01A44
:1003F0005241D9D243088B4201D34B00C01A52411B
:10040000411A00D20146634652415B10104601D3A7
:100410004042002B00D54942704763465B1000D331
:10042000404201B50020C046C04602BD704770473B
:100430007047754600F024F8AE46050069465346FD
:10044000C008C000854618B020B5FFF78FFE60BC1D
:1004500000274908B6460026C0C5C0C5C0C5C0C5EE
:10046000C0C5C0C5C0C5C0C5403D49008D46704728
:1004700010B50446C046C0462046FFF766FE10BDD4
:10048000004870475800002001491820ABBEFEE725
:1004900026000200704772B6FEE70000F8B50023A0
:1004A00003240125BAE02E469E40B44632407CD05B
:1004B0000E79B607B60F012E01D0022E17D186682D
:1004C0002746B6465E00B74000967646BE43B6461F
:1004D000CF68009EB74076463743876046686746D8
:1004E000BE430F79FF06FF0F9F40374347600E79E9
:1004F000F643B6070ED0C6682746B4465E00B64639
:10050000B7406646BE43B4468F687646B7406646F7
:100510003743C7600E79B607B60F022E14D1DE0836
:10052000B60036180096366A5F07B446FE0E0F27EF
:10053000B646B7406646BE43B4460F697646B740F6
:1005400066463743009E376206682746B4465E001B
:10055000B646B7406646BE430F79B446BF07BF0FE5
:100560007646B7406646374307604E68B603B60F17
:1005700053D02D4FBE692E43BE61BE699F08F6075A
:10058000F60F2A4EBF00BE190096B6680F27B44674
:100590009E07360FB646B7406646BE430927FF069C
:1005A000B446B84202D1002710E036E0204FB842EE
:1005B00001D101270AE01F4FB84201D1022705E00F
:1005C0001D4FB84201D1032700E005277646B7400A
:1005D00066463743009EB760184E36684F689643AC
:1005E000FF0300D51643154F3E607E684F68964363
:1005F000BF0300D51643114F7E60BE684F68964317
:10060000FF0200D516430D4FBE60FE684F6896434B
:10061000BF0200D51643094AD6605B1C0A6816461D
:10062000DE4000D03FE7F8BD00100240000001406E
:100630000004004800080048000C00480004014085
:10064000002A01D08161704781627047014880684B
:100650007047000000000020024881680278891875
:10066000816070470000002010B506480168102224
:1006700011430160032000F007F800F027F8002084
:1006800010BD00000020024070B504460D4D7D20D5
:100690002978C000FFF71DFE01460B480068FFF7F0
:1006A00018FE00F0B3FA002809D1042C07D200226A
:1006B0002146401E00F01EF800206C6070BD012035
:1006C00070BD0000000000200C00002008B50848A4
:1006D0008169012211438161816911400091C269E0
:1006E00001040A43C261C0690840009008BD0000CF
:1006F0000010024010B500F0FFFF10BDF8B50F4626
:10070000060059D03A4D2868C007C00FB84209D238
:10071000286840084000384328602868C007C00F98
:10072000B84249D13068334C81070CD5400704D515
:10073000606807210902084360606068F02188430F
:10074000B168084360603078C00726D0706801281F
:100750000ED0216802280ED0890700292CDA6168A2
:100760008908890001436160FFF770FF00900DE088
:1007700021688903F1E78901EFE7FFF767FF009937
:10078000411A1D48814201D90320F8BD60680C213F
:100790000840716889008842EFD12868C007C00FFF
:1007A000B8420BD9286840084000384328602868C0
:1007B000C007C00FB84201D00120F8BD3078400713
:1007C00006D56068072109028843F1680843606024
:1007D00000F018F86168094A0906090F515CC84021
:1007E000074908600320FFF74FFF0020F8BD000015
:1007F0000020024000100240881300006817000823
:100800000C00002010B514A30FCB88B06C460FC4A9
:1008100015A30FCB0FC4184A51680C200B46034098
:100820001648042B16D0082B14D18B021B0F6C46D4
:10083000E45CD26A04AB1207120F9A5CC90305D5B7
:1008400000231946FFF7A4FC214601E020460C498D
:1008500000F03AFF08B010BD0203040506070809BE
:100860000A0B0C0D0E0F10100102030405060708F9
:10087000090A0B0C0D0E0F100010024000127A0036
:1008800000093D00FEB5040070D02078DC4DC007A3
:100890004AD068680007800F012807D06868000701
:1008A000800F022809D16868C00306D52868800334
:1008B0003AD560680028E7D036E06168012914D095
:1008C00001208004002901D0052914D02A680121C3
:1008D00009048A432A6029688143296060680028E6
:1008E00016D0FFF7B3FE06460EE028680121090482
:1008F00008432860F2E7296801432960F5E7FFF71C
:10090000A5FE801B64286ED828688003F7D50BE00D
:10091000FFF79CFE064604E0FFF798FE801B642864
:10092000F1D828688003F7D42078012680070028B2
:100930003CDA68680007800F07D068680007800FFE
:10094000022809D16868C00306D42868800716D534
:10095000E06801280AD112E0E0680028286816D073
:1009600030432860FFF772FE074605E043E1FFF7DA
:100970006DFEC01B0228C6D828688007F7D52868F6
:10098000F82188432169C900084328600EE0400827
:1009900040002860FFF75AFE074604E0FFF756FEC6
:1009A000C01B0228AFD828688007F7D4207800073A
:1009B00022D5E0690028686A0ED030436862FFF7EC
:1009C00045FE074604E0FFF741FEC01B02289AD807
:1009D000686A8007F7D50FE0400840006862FFF7BB
:1009E00035FE074605E09DE0FFF730FEC01B0228FC
:1009F00089D8686A8007F7D4207804274007002840
:100A000060DA00200190E869C00008D4E969B806FE
:100A10000143E961E96901400120009101907948B1
:100A20000168C90511D40168821511430160FFF7FF
:100A30000DFE009005E0FFF709FE0099401A6428BA
:100A400070D870480068C005F5D5A06801280AD0A4
:100A5000002801D0052810D0286A400840002862EC
:100A6000286AB84301E0286A30432862A068002859
:100A700012D0FFF7EBFD00900AE0286A38432862A5
:100A8000F1E7FFF7E3FD0099411A5F48814249D839
:100A9000286A8007F5D50DE0FFF7D8FD009006E045
:100AA000FFF7D4FD0099411A574881423AD8286A85
:100AB0008007F5D40198002804D0E96901200007D7
:100AC0008143E9612078C00635D5606901280CD0E2
:100AD000401D686B23D038436863686B4008400052
:100AE0006863FFF7B3FD064622E0686B384368632E
:100AF000686B30436863FFF7A9FD064604E0FFF723
:100B0000A5FD801B02285BD8686B8007F7D5686B52
:100B1000F8218843A169C900084368630BE0B84322
:100B20006863F4E74CE0FFF791FD801B022847D88B
:100B3000686B8007F7D4206A00285ED069680907CF
:100B4000890F022942D0012636060228286805D0DE
:100B5000B0432860FFF77AFD044633E0B0432860D5
:100B6000FFF774FD074604E0FFF770FDC01B022885
:100B700026D828688001F7D4E86AE16A00090001F4
:100B80000843E862616AA06A084369683D2212046A
:100B9000914308436860286830432860FFF756FD9A
:100BA000044604E0FFF752FD001B022808D828681D
:100BB0008001F7D521E0FFF749FD001B022801D98C
:100BC0000320FEBD28688001F5D416E00128F8D086
:100BD0006868E96A01221204636A02409A420AD1F3
:100BE0000907E26A090F914205D10F2189040840E3
:100BF000A16A884201D00120FEBD0020FEBD000098
:100C0000001002400070004088130000094910B530
:100C1000401E884201D9012010BD074C60610321AC
:100C2000081F00F069FD0020A0610720206100205E
:100C300010BD0000FFFFFF0000E000E030B50346FC
:100C400020331A7F012A26D001221A770325CA6889
:100C50002D02AA438D6800242A430125AD02AA4330
:100C60004D6800682A430125ED02AA430D682A4316
:100C700001252D03AA430D692A4301256D03AA43CB
:100C80004D69C9692A430125AD03AA430A43426459
:100C90001C77002030BD022030BD0000F0B50246B8
:100CA0002032137F012B1ED00125157702235377A5
:100CB00006687468B3687027BC430F682743776081
:100CC00000680A4CA04205D0094CA04202D0094C51
:100CD000A04204D180244968A34319438160557719
:100CE00000201077F0BD0220F0BD0000002C014074
:100CF000000400400040014070B5040005D02546C6
:100D00002035687F002802D006E0012070BD002059
:100D10002877204600F014F802206877211D20680B
:100D200000F04EFB01204034A071A877E8772070D6
:100D30006070A070E070207160716877002070BDF5
:100D400008B500680549884207D105488269C11481
:100D50000A43826180690840009008BD002C014070
:100D600000100240F8B5054604462035287F0026CD
:100D7000012817D001202877022068772268906820
:100D80007727FF23B8431B029843906008685028D8
:100D900038D00EDC20284FD006DC00284CD010289C
:100DA0001ED149E00220F8BD302845D0402817D197
:100DB0003AE060282ED0702819D001221203801A40
:100DC0000FD090420CD1CB684A688968206800F047
:100DD00048FB20688168012292031143816000E092
:100DE000012601206877002028773046F8BDCB68BF
:100DF0004A688968206800F034FB216888683843B5
:100E00008860EEE7CA684968206800F039FC502124
:100E1000206806E0CA684968206800F042FC60214A
:100E2000206800F029FBDCE7CA684968206800F008
:100E300027FC40212068F4E7226801461046F0E7CD
:100E400010B586B0044614216846FFF740FA0E49F3
:100E50002068884215D10D484269012149040A439E
:100E6000426140690840059048120090002002212C
:100E7000029003900191049109206946C006FFF792
:100E80000DFB06B010BD0000002C01400010024018
:100E9000F8B5064604462036307F00270D46012867
:100EA0000ED001203077002A0CD0042A1BD0082A4B
:100EB0002FD00C2A3ED00127002030773846F8BDCD
:100EC0000220F8BD206800F0DFFA2068816908225E
:100ED000114381612068826904218A43826120680C
:100EE00081692A6912E0206800F012FB206882699B
:100EF0000121C9020A4382612068816901229202AC
:100F000091438161206881692A69120211438161DC
:100F1000D2E7206800F03CFB2068C1690822114339
:100F2000C1612068C26904218A43C2612068C16925
:100F30002A6912E0206800F06DFB2068C169012277
:100F4000D2021143C1612068C269012189028A432A
:100F5000C2612068C1692A6912021143C161ABE70D
:100F600070B5040005D025462035687F002802D0E2
:100F700006E0012070BD00202877204600F014F81C
:100F800002206877211D206800F01AFA0120403401
:100F9000A071A877E87720706070A070E070207171
:100FA00060716877002070BD7047000030B504465E
:100FB0000222203000290AD004290DD020464030DA
:100FC00008290ED04378012B10D0012030BD837F3B
:100FD000012BFAD182770AE0C37F012BF5D1C277CA
:100FE00005E00378012BF0D1027000E0427001228D
:100FF000206800F029FA12492068124B884207D075
:10100000984205D0104A904202D0104A904204D132
:10101000426C0125ED032A43426420680122884284
:1010200004D00B49884201D0984204D18168490715
:10103000490F062902D0016811430160002030BD2C
:10104000002C0140004001400044014000480140A4
:1010500000040040FEE7000008B50848426901218D
:1010600089050A43426142690A4000924269491176
:101070000A43426140690840009008BD00100240E8
:1010800010B596B000240F941094119412941394F8
:101090001C2108A81494FFF71AF920216846FFF7CD
:1010A00016F92A492A4812C0046084600321C460EA
:1010B0004160802101610838FFF71EFE002801D041
:1010C000FFF7E9F9012000030F900FA92048FFF76F
:1010D00049FE002801D0FFF7DEF91D48FFF740FF69
:1010E000002801D0FFF7D7F9139413A918481494D6
:1010F000FFF7D4FD002801D0FFF7CDF960200D9453
:10110000099408900A940B940C94002208A90E9458
:101110000F48FFF7BDFE002801D0FFF7BCF9012002
:10112000009440030294059001940394049469464A
:1011300007940748FFF782FD002801D0FFF7ABF9BD
:101140000348FFF77DFE16B010BD0000002C0140E3
:1011500010000020FEE770B500240021204600F0BA
:10116000CEF80025002000F0E9F86D1CEDB2802DCE
:10117000F8D3641CE4B2082CEFD370BD10B5064C54
:10118000012291022046FFF75BFA0122D10220469C
:10119000FFF756FA10BD000000040048F8B500241F
:1011A000124E01250746AD028022E24001213A405D
:1011B000C9023046FFF744FA012229463046FFF7BC
:1011C0003FFA002229463046FFF73AFA641CE4B29F
:1011D000082CE9D3012229463046FFF731FA0022D4
:1011E00029463046FFF72CFAF8BD000000040048FD
:1011F00070B501220B4DD40221462846FFF720FA94
:101200000122960231462846FFF71AFA00222146AB
:101210002846FFF715FA002231462846FFF710FA54
:1012200070BD00000004004870B50124084DE402C0
:10123000002221462846FFF703FA012291022846A0
:10124000FFF7FEF9012221462846FFF7F9F970BDA4
:101250000004004810B500217D22D2000020401C6F
:101260009042FCD3491C9142F8D3FFF787FFAE2090
:1012700000F054F8D52000F051F8802000F04EF82E
:10128000A82000F04BF83F2000F048F8D32000F0F1
:1012900045F8002000F042F8402000F03FF8A1207F
:1012A00000F03CF8C82000F039F8DA2000F036F8F9
:1012B000122000F033F8812000F030F8CF2000F049
:1012C0002DF8D92000F02AF8F12000F027F8DB20D3
:1012D00000F024F8302000F021F8A42000F01EF8DF
:1012E000A62000F01BF88D2000F018F8142000F064
:1012F00015F8AF2000F012F8FFF72DFF10BD10B564
:101300000C46B021084300F009F82009103000F025
:1013100005F82007000F00F001F810BD10B50446D5
:10132000FFF766FF7820FFF739FF0020FFF736FF51
:101330002046FFF733FFFFF777FF10BD10B50446D7
:10134000FFF756FF7820FFF729FF4020FFF726FF21
:101350002046FFF723FFFFF767FF10BD7047704778
:1013600010B5FFF779F910BD30B591B0302168465E
:10137000FEF7ADFF00240120009001900E940004C0
:1013800009900F9400010D9402250A900C94089581
:101390000B946846FFF776FA002801D072B6FEE794
:1013A00007200C900E9401210D950F940CA8FFF7C7
:1013B000A5F9002801D072B6FEE711B030BD704724
:1013C000F0B502681A4B1B4C984201D0A04203D1E1
:1013D0007025AA434D682A43174D184E184F98425E
:1013E0000AD0A04208D0174CA04205D0A84203D092
:1013F000B04201D0B84205D11446032212029443F0
:10140000CA6822438024A2434C69224302608A684E
:10141000C2620A688262984205D0A84203D0B042F4
:1014200001D0B84201D10969016301214161F0BDD8
:10143000002C0140000400400040014000440140F5
:10144000004801400020004010B5CB06DB0E012112
:10145000046A99408C430462016A9A401143016214
:1014600010BD30B58468FF252D021B021343AC4329
:101470000B432343836030BD826870239A430A4341
:1014800007210A4382607047F0B5026A5208520091
:101490000262056A436882697024A24392080C685C
:1014A00092001443022295438A68164E2A43144D33
:1014B000A84207D0B04205D0134FB84202D0134F14
:1014C000B84206D10827BA43CF681743042297438E
:1014D0003A46A84207D0B04205D00B4DA84202D0F0
:1014E0000A4DA84206D103252D02AB434D691D4389
:1014F0008B692B4343608461496841630262F0BD9C
:10150000002C0140004001400044014000480140DF
:1015100070B5026A10239A430262056A42688369C1
:1015200073242402A3430C6824021C4320239D43FC
:101530008B681B012B43124DA84208D11D46CB6876
:101540008026B5431B012B434025AB4308E00D4DDE
:10155000A84205D00C4DA84202D00C4DA84208D19B
:101560000325AD02AA434D69AD0015438A69920077
:101570002A434260846149688163036270BD000050
:10158000002C01400040014000440140004801405F
:1015900070B5026AFF2301339A430262056A436809
:1015A000C2697024A24392080C689200144301227D
:1015B000520295438A6812022A43124DA84208D16A
:1015C0001546CA68C614B54312022A430515AA4334
:1015D00008E00D4DA84205D00C4DA84202D00C4D9C
:1015E000A84208D103252D03AB434D692D011D43AE
:1015F0008B691B012B434360C4614968C16302626C
:1016000070BD0000002C014000400140004401403A
:101610000048014030B5026A01231B039A4302626D
:10162000046A4268C36973252D02AB430D682D021D
:101630001D4301235B039C438B681B0323430C4C1A
:10164000A04208D00B4CA04205D00B4CA04202D0C7
:101650000A4CA04205D10124A403A2434C69A40171
:1016600022434260C56149680164036230BD0000E5
:10167000002C01400040014000440140004801406E
:1016800030B5036A046A6408640004628469F02562
:10169000AC43120122430A24A3430B438261036239
:1016A00030BD30B5036A1024A34303628469036A22
:1016B0000F252D031203AC432243A024A3430901A9
:1016C00019438261016230BDF8B5040C8BB2264625
:1016D00082B25E430D0C1046370C58433604801915
:1016E0000021794116466E43370C36048019794142
:1016F00026466E438919F8BD8307FF22DB0E9A4008
:101700008907090E9940002808DB830809489B00D7
:101710001B18186890430843186070470007000FB3
:101720000838830804489B001B18D8699043084375
:10173000D861704700E400E000ED00E00224FEF70D
:1017400093FFFFF787FDFFF70FFEFFF785FCFFF71D
:1017500097FC00210348FFF729FC02480068446316
:10176000FEE7000010000020000000000000000064
:10177000010203040607080998170008000000206A
:1017800010000000F8000008A81700081000002052
:10179000A806000014010008010000000400000079
:0817A0000000000000127A00B5
:04000005080000B53A
:00000001FF
